{
    "contractName": "Lottery",
    "abi": [
        {
            "inputs": [],
            "name": "chairperson",
            "outputs": [
                {
                    "internalType": "address",
                    "name": "",
                    "type": "address"
                }
            ],
            "stateMutability": "view",
            "type": "function"
        },
        {
            "inputs": [
                {
                    "internalType": "address",
                    "name": "",
                    "type": "address"
                }
            ],
            "name": "voters",
            "outputs": [
                {
                    "internalType": "uint256",
                    "name": "weight",
                    "type": "uint256"
                },
                {
                    "internalType": "bool",
                    "name": "voted",
                    "type": "bool"
                },
                {
                    "internalType": "address",
                    "name": "delegate",
                    "type": "address"
                },
                {
                    "internalType": "uint256",
                    "name": "vote",
                    "type": "uint256"
                }
            ],
            "stateMutability": "view",
            "type": "function"
        }
    ],
    "bytecode": "608060405234801561001057600080fd5b50610123806100206000396000f3fe6080604052348015600f57600080fd5b506004361060325760003560e01c80632e4176cf146037578063a3ec138d146059575b600080fd5b603d60aa565b604080516001600160a01b039092168252519081900360200190f35b607c60048036036020811015606d57600080fd5b50356001600160a01b031660b9565b6040805194855292151560208501526001600160a01b03909116838301526060830152519081900360800190f35b6000546001600160a01b031681565b600160208190526000918252604090912080549181015460029091015460ff82169161010090046001600160a01b0316908456fea26469706673582212204b6015edfe52c1e069ce28e35b05283d826fce938daf11a1d9f603ab140cb75864736f6c63430007000033",
    "sourcePath": "/Users/alan/Desktop/Lehigh Class/Fall 2020/CSE 297/HW 7/Lottery.sol",
    "compiler": {
        "name": "solc",
        "version": "0.7.0+commit.9e61f92b"
    },
    "functionHashes": {
        "chairperson()": "2e4176cf",
        "voters(address)": "a3ec138d"
    },
    "gasEstimates": {
        "creation": {
            "codeDepositCost": "58200",
            "executionCost": "111",
            "totalCost": "58311"
        },
        "external": {
            "chairperson()": "1015",
            "voters(address)": "2879"
        }
    }
}