{
    "contractName": "Test",
    "abi": [
        {
            "inputs": [
                {
                    "internalType": "bytes32[]",
                    "name": "proposalNames",
                    "type": "bytes32[]"
                }
            ],
            "stateMutability": "nonpayable",
            "type": "constructor"
        },
        {
            "inputs": [],
            "name": "chairperson",
            "outputs": [
                {
                    "internalType": "address",
                    "name": "",
                    "type": "address"
                }
            ],
            "stateMutability": "view",
            "type": "function"
        },
        {
            "inputs": [
                {
                    "internalType": "address",
                    "name": "to",
                    "type": "address"
                }
            ],
            "name": "delegate",
            "outputs": [],
            "stateMutability": "nonpayable",
            "type": "function"
        },
        {
            "inputs": [
                {
                    "internalType": "address",
                    "name": "voter",
                    "type": "address"
                }
            ],
            "name": "givveRightToVote",
            "outputs": [],
            "stateMutability": "nonpayable",
            "type": "function"
        },
        {
            "inputs": [
                {
                    "internalType": "uint256",
                    "name": "",
                    "type": "uint256"
                }
            ],
            "name": "proposals",
            "outputs": [
                {
                    "internalType": "bytes32",
                    "name": "name",
                    "type": "bytes32"
                },
                {
                    "internalType": "uint256",
                    "name": "voteCount",
                    "type": "uint256"
                }
            ],
            "stateMutability": "view",
            "type": "function"
        },
        {
            "inputs": [
                {
                    "internalType": "uint256",
                    "name": "proposal",
                    "type": "uint256"
                }
            ],
            "name": "vote",
            "outputs": [],
            "stateMutability": "nonpayable",
            "type": "function"
        },
        {
            "inputs": [
                {
                    "internalType": "address",
                    "name": "",
                    "type": "address"
                }
            ],
            "name": "voters",
            "outputs": [
                {
                    "internalType": "uint256",
                    "name": "weight",
                    "type": "uint256"
                },
                {
                    "internalType": "bool",
                    "name": "voted",
                    "type": "bool"
                },
                {
                    "internalType": "address",
                    "name": "delegate",
                    "type": "address"
                },
                {
                    "internalType": "uint256",
                    "name": "vote",
                    "type": "uint256"
                }
            ],
            "stateMutability": "view",
            "type": "function"
        },
        {
            "inputs": [],
            "name": "winnerName",
            "outputs": [
                {
                    "internalType": "bytes32",
                    "name": "winnerName_",
                    "type": "bytes32"
                }
            ],
            "stateMutability": "view",
            "type": "function"
        },
        {
            "inputs": [],
            "name": "winningProposal",
            "outputs": [
                {
                    "internalType": "uint256",
                    "name": "winningProposal_",
                    "type": "uint256"
                }
            ],
            "stateMutability": "view",
            "type": "function"
        }
    ],
    "bytecode": "608060405234801561001057600080fd5b5060405161085f38038061085f8339818101604052602081101561003357600080fd5b810190808051604051939291908464010000000082111561005357600080fd5b90830190602082018581111561006857600080fd5b825186602082028301116401000000008211171561008557600080fd5b82525081516020918201928201910280838360005b838110156100b257818101518382015260200161009a565b50505050919091016040908152600080546001600160a01b03191633178082556001600160a01b03168152600160208190529181209190915593505050505b8151811015610153576002604051806040016040528084848151811061011357fe5b60209081029190910181015182526000918101829052835460018181018655948352918190208351600290930201918255919091015190820155016100f1565b50506106fb806101646000396000f3fe608060405234801561001057600080fd5b50600436106100885760003560e01c8063609ff1bd1161005b578063609ff1bd1461012c578063a3ec138d14610146578063c0e1e1371461019a578063e2ba53f0146101c057610088565b80630121b93f1461008d578063013cf08b146100ac5780632e4176cf146100e25780635c19a95c14610106575b600080fd5b6100aa600480360360208110156100a357600080fd5b50356101c8565b005b6100c9600480360360208110156100c257600080fd5b50356102b2565b6040805192835260208301919091528051918290030190f35b6100ea6102dd565b604080516001600160a01b039092168252519081900360200190f35b6100aa6004803603602081101561011c57600080fd5b50356001600160a01b03166102ec565b6101346104db565b60408051918252519081900360200190f35b61016c6004803603602081101561015c57600080fd5b50356001600160a01b0316610542565b6040805194855292151560208501526001600160a01b03909116838301526060830152519081900360800190f35b6100aa600480360360208110156101b057600080fd5b50356001600160a01b0316610576565b610134610671565b3360009081526001602052604090208054610221576040805162461bcd60e51b8152602060048201526014602482015273486173206e6f20726967687420746f20766f746560601b604482015290519081900360640190fd5b600181015460ff161561026b576040805162461bcd60e51b815260206004820152600d60248201526c105b1c9958591e481d9bdd1959609a1b604482015290519081900360640190fd5b6001818101805460ff191690911790556002808201839055815481549091908490811061029457fe5b60009182526020909120600160029092020101805490910190555050565b600281815481106102bf57fe5b60009182526020909120600290910201805460019091015490915082565b6000546001600160a01b031681565b3360009081526001602081905260409091209081015460ff161561034c576040805162461bcd60e51b81526020600482015260126024820152712cb7ba9030b63932b0b23c903b37ba32b21760711b604482015290519081900360640190fd5b6001600160a01b0382163314156103aa576040805162461bcd60e51b815260206004820152601d60248201527f53656c662d64656c65676174696f6e20697320646973616c6c6f776564000000604482015290519081900360640190fd5b6001600160a01b038281166000908152600160208190526040909120015461010090041615610454576001600160a01b03918216600090815260016020819052604090912001546101009004909116903382141561044f576040805162461bcd60e51b815260206004820152601960248201527f466f756e64206c6f6f7020696e2064656c65676174696f6e2e00000000000000604482015290519081900360640190fd5b6103aa565b6001818101805460ff19168217610100600160a81b0319166101006001600160a01b0386169081029190911790915560009081526020829052604090209081015460ff16156104ce578154600282810154815481106104af57fe5b60009182526020909120600160029092020101805490910190556104d6565b815481540181555b505050565b600080805b60025481101561053d5781600282815481106104f857fe5b9060005260206000209060020201600101541115610535576002818154811061051d57fe5b90600052602060002090600202016001015491508092505b6001016104e0565b505090565b600160208190526000918252604090912080549181015460029091015460ff82169161010090046001600160a01b03169084565b6000546001600160a01b031633146105bf5760405162461bcd60e51b815260040180806020018281038252602781526020018061069f6027913960400191505060405180910390fd5b6001600160a01b0381166000908152600160208190526040909120015460ff1615610631576040805162461bcd60e51b815260206004820152601860248201527f54686520766f74657220616c726561647920766f7465642e0000000000000000604482015290519081900360640190fd5b6001600160a01b0381166000908152600160205260409020541561065457600080fd5b6001600160a01b0316600090815260016020819052604090912055565b6000600261067d6104db565b8154811061068757fe5b90600052602060002090600202016000015490509056fe4f6e6c79206368616972706572736f6e2063616e206769766520726967687420746f20766f7465a264697066735822122012f471fa67f159c85c6e931b44b61699845ed0f30d438ae451595cad0ff4992064736f6c63430007000033",
    "sourcePath": "/Users/alan/Desktop/Lehigh Class/Fall 2020/CSE 297/HW 7/test.sol",
    "compiler": {
        "name": "solc",
        "version": "0.7.0+commit.9e61f92b"
    },
    "functionHashes": {
        "chairperson()": "2e4176cf",
        "delegate(address)": "5c19a95c",
        "givveRightToVote(address)": "c0e1e137",
        "proposals(uint256)": "013cf08b",
        "vote(uint256)": "0121b93f",
        "voters(address)": "a3ec138d",
        "winnerName()": "e2ba53f0",
        "winningProposal()": "609ff1bd"
    },
    "gasEstimates": {
        "creation": {
            "codeDepositCost": "357400",
            "executionCost": "infinite",
            "totalCost": "infinite"
        },
        "external": {
            "chairperson()": "1082",
            "delegate(address)": "infinite",
            "givveRightToVote(address)": "infinite",
            "proposals(uint256)": "2810",
            "vote(uint256)": "65301",
            "voters(address)": "2901",
            "winnerName()": "infinite",
            "winningProposal()": "infinite"
        }
    }
}